{
  "_format": "hh-sol-artifact-1",
  "contractName": "FightNFT",
  "sourceName": "contracts/FightNFT.sol",
  "abi": [
    {
      "inputs": [],
      "stateMutability": "nonpayable",
      "type": "constructor"
    },
    {
      "anonymous": false,
      "inputs": [
        {
          "indexed": true,
          "internalType": "address",
          "name": "owner",
          "type": "address"
        },
        {
          "indexed": true,
          "internalType": "address",
          "name": "approved",
          "type": "address"
        },
        {
          "indexed": true,
          "internalType": "uint256",
          "name": "tokenId",
          "type": "uint256"
        }
      ],
      "name": "Approval",
      "type": "event"
    },
    {
      "anonymous": false,
      "inputs": [
        {
          "indexed": true,
          "internalType": "address",
          "name": "owner",
          "type": "address"
        },
        {
          "indexed": true,
          "internalType": "address",
          "name": "operator",
          "type": "address"
        },
        {
          "indexed": false,
          "internalType": "bool",
          "name": "approved",
          "type": "bool"
        }
      ],
      "name": "ApprovalForAll",
      "type": "event"
    },
    {
      "anonymous": false,
      "inputs": [
        {
          "indexed": true,
          "internalType": "address",
          "name": "from",
          "type": "address"
        },
        {
          "indexed": true,
          "internalType": "address",
          "name": "to",
          "type": "address"
        },
        {
          "indexed": true,
          "internalType": "uint256",
          "name": "tokenId",
          "type": "uint256"
        }
      ],
      "name": "Transfer",
      "type": "event"
    },
    {
      "inputs": [
        {
          "internalType": "address",
          "name": "to",
          "type": "address"
        },
        {
          "internalType": "uint256",
          "name": "tokenId",
          "type": "uint256"
        }
      ],
      "name": "approve",
      "outputs": [],
      "stateMutability": "nonpayable",
      "type": "function"
    },
    {
      "inputs": [
        {
          "internalType": "address",
          "name": "owner",
          "type": "address"
        }
      ],
      "name": "balanceOf",
      "outputs": [
        {
          "internalType": "uint256",
          "name": "",
          "type": "uint256"
        }
      ],
      "stateMutability": "view",
      "type": "function"
    },
    {
      "inputs": [
        {
          "internalType": "uint256",
          "name": "tokenId",
          "type": "uint256"
        }
      ],
      "name": "getApproved",
      "outputs": [
        {
          "internalType": "address",
          "name": "",
          "type": "address"
        }
      ],
      "stateMutability": "view",
      "type": "function"
    },
    {
      "inputs": [
        {
          "internalType": "address",
          "name": "owner",
          "type": "address"
        },
        {
          "internalType": "address",
          "name": "operator",
          "type": "address"
        }
      ],
      "name": "isApprovedForAll",
      "outputs": [
        {
          "internalType": "bool",
          "name": "",
          "type": "bool"
        }
      ],
      "stateMutability": "view",
      "type": "function"
    },
    {
      "inputs": [],
      "name": "mintNFT",
      "outputs": [],
      "stateMutability": "nonpayable",
      "type": "function"
    },
    {
      "inputs": [],
      "name": "name",
      "outputs": [
        {
          "internalType": "string",
          "name": "",
          "type": "string"
        }
      ],
      "stateMutability": "view",
      "type": "function"
    },
    {
      "inputs": [
        {
          "internalType": "uint256",
          "name": "tokenId",
          "type": "uint256"
        }
      ],
      "name": "ownerOf",
      "outputs": [
        {
          "internalType": "address",
          "name": "",
          "type": "address"
        }
      ],
      "stateMutability": "view",
      "type": "function"
    },
    {
      "inputs": [
        {
          "internalType": "address",
          "name": "from",
          "type": "address"
        },
        {
          "internalType": "address",
          "name": "to",
          "type": "address"
        },
        {
          "internalType": "uint256",
          "name": "tokenId",
          "type": "uint256"
        }
      ],
      "name": "safeTransferFrom",
      "outputs": [],
      "stateMutability": "nonpayable",
      "type": "function"
    },
    {
      "inputs": [
        {
          "internalType": "address",
          "name": "from",
          "type": "address"
        },
        {
          "internalType": "address",
          "name": "to",
          "type": "address"
        },
        {
          "internalType": "uint256",
          "name": "tokenId",
          "type": "uint256"
        },
        {
          "internalType": "bytes",
          "name": "_data",
          "type": "bytes"
        }
      ],
      "name": "safeTransferFrom",
      "outputs": [],
      "stateMutability": "nonpayable",
      "type": "function"
    },
    {
      "inputs": [
        {
          "internalType": "address",
          "name": "operator",
          "type": "address"
        },
        {
          "internalType": "bool",
          "name": "approved",
          "type": "bool"
        }
      ],
      "name": "setApprovalForAll",
      "outputs": [],
      "stateMutability": "nonpayable",
      "type": "function"
    },
    {
      "inputs": [
        {
          "internalType": "bytes4",
          "name": "interfaceId",
          "type": "bytes4"
        }
      ],
      "name": "supportsInterface",
      "outputs": [
        {
          "internalType": "bool",
          "name": "",
          "type": "bool"
        }
      ],
      "stateMutability": "view",
      "type": "function"
    },
    {
      "inputs": [],
      "name": "symbol",
      "outputs": [
        {
          "internalType": "string",
          "name": "",
          "type": "string"
        }
      ],
      "stateMutability": "view",
      "type": "function"
    },
    {
      "inputs": [
        {
          "internalType": "uint256",
          "name": "tokenId",
          "type": "uint256"
        }
      ],
      "name": "tokenURI",
      "outputs": [
        {
          "internalType": "string",
          "name": "",
          "type": "string"
        }
      ],
      "stateMutability": "view",
      "type": "function"
    },
    {
      "inputs": [
        {
          "internalType": "address",
          "name": "from",
          "type": "address"
        },
        {
          "internalType": "address",
          "name": "to",
          "type": "address"
        },
        {
          "internalType": "uint256",
          "name": "tokenId",
          "type": "uint256"
        }
      ],
      "name": "transferFrom",
      "outputs": [],
      "stateMutability": "nonpayable",
      "type": "function"
    }
  ],
  "bytecode": "0x60806040523480156200001157600080fd5b506040518060400160405280600981526020017f5371756172654e465400000000000000000000000000000000000000000000008152506040518060400160405280600681526020017f5351554152450000000000000000000000000000000000000000000000000000815250816000908051906020019062000096929190620001cf565b508060019080519060200190620000af929190620001cf565b505050620000fd6040518060400160405280601e81526020017f54686973206973206d79204e465420636f6e74726163742e20576f61682100008152506200010360201b62000b131760201c565b620003ac565b620001a3816040516024016200011a9190620002c0565b6040516020818303038152906040527f41304fac000000000000000000000000000000000000000000000000000000007bffffffffffffffffffffffffffffffffffffffffffffffffffffffff19166020820180517bffffffffffffffffffffffffffffffffffffffffffffffffffffffff8381831617835250505050620001a660201b60201c565b50565b60008151905060006a636f6e736f6c652e6c6f679050602083016000808483855afa5050505050565b828054620001dd9062000336565b90600052602060002090601f0160209004810192826200020157600085556200024d565b82601f106200021c57805160ff19168380011785556200024d565b828001600101855582156200024d579182015b828111156200024c5782518255916020019190600101906200022f565b5b5090506200025c919062000260565b5090565b5b808211156200027b57600081600090555060010162000261565b5090565b60006200028c82620002e4565b620002988185620002ef565b9350620002aa81856020860162000300565b620002b5816200039b565b840191505092915050565b60006020820190508181036000830152620002dc81846200027f565b905092915050565b600081519050919050565b600082825260208201905092915050565b60005b838110156200032057808201518184015260208101905062000303565b8381111562000330576000848401525b50505050565b600060028204905060018216806200034f57607f821691505b602082108114156200036657620003656200036c565b5b50919050565b7f4e487b7100000000000000000000000000000000000000000000000000000000600052602260045260246000fd5b6000601f19601f8301169050919050565b612bfb80620003bc6000396000f3fe608060405234801561001057600080fd5b50600436106100ea5760003560e01c80636352211e1161008c578063a22cb46511610066578063a22cb46514610249578063b88d4fde14610265578063c87b56dd14610281578063e985e9c5146102b1576100ea565b80636352211e146101cb57806370a08231146101fb57806395d89b411461022b576100ea565b8063095ea7b3116100c8578063095ea7b31461016d57806314f710fe1461018957806323b872dd1461019357806342842e0e146101af576100ea565b806301ffc9a7146100ef57806306fdde031461011f578063081812fc1461013d575b600080fd5b61010960048036038101906101049190611caf565b6102e1565b60405161011691906120b5565b60405180910390f35b6101276103c3565b60405161013491906120d0565b60405180910390f35b61015760048036038101906101529190611d01565b610455565b604051610164919061204e565b60405180910390f35b61018760048036038101906101829190611c73565b6104da565b005b6101916105f2565b005b6101ad60048036038101906101a89190611b6d565b610639565b005b6101c960048036038101906101c49190611b6d565b610699565b005b6101e560048036038101906101e09190611d01565b6106b9565b6040516101f2919061204e565b60405180910390f35b61021560048036038101906102109190611b08565b61076b565b60405161022291906122f2565b60405180910390f35b610233610823565b60405161024091906120d0565b60405180910390f35b610263600480360381019061025e9190611c37565b6108b5565b005b61027f600480360381019061027a9190611bbc565b6108cb565b005b61029b60048036038101906102969190611d01565b61092d565b6040516102a891906120d0565b60405180910390f35b6102cb60048036038101906102c69190611b31565b610a7f565b6040516102d891906120b5565b60405180910390f35b60007f80ac58cd000000000000000000000000000000000000000000000000000000007bffffffffffffffffffffffffffffffffffffffffffffffffffffffff1916827bffffffffffffffffffffffffffffffffffffffffffffffffffffffff191614806103ac57507f5b5e139f000000000000000000000000000000000000000000000000000000007bffffffffffffffffffffffffffffffffffffffffffffffffffffffff1916827bffffffffffffffffffffffffffffffffffffffffffffffffffffffff1916145b806103bc57506103bb82610bac565b5b9050919050565b6060600080546103d290612517565b80601f01602080910402602001604051908101604052809291908181526020018280546103fe90612517565b801561044b5780601f106104205761010080835404028352916020019161044b565b820191906000526020600020905b81548152906001019060200180831161042e57829003601f168201915b5050505050905090565b600061046082610c16565b61049f576040517f08c379a000000000000000000000000000000000000000000000000000000000815260040161049690612272565b60405180910390fd5b6004600083815260200190815260200160002060009054906101000a900473ffffffffffffffffffffffffffffffffffffffff169050919050565b60006104e5826106b9565b90508073ffffffffffffffffffffffffffffffffffffffff168373ffffffffffffffffffffffffffffffffffffffff161415610556576040517f08c379a000000000000000000000000000000000000000000000000000000000815260040161054d906122b2565b60405180910390fd5b8073ffffffffffffffffffffffffffffffffffffffff16610575610c82565b73ffffffffffffffffffffffffffffffffffffffff1614806105a457506105a38161059e610c82565b610a7f565b5b6105e3576040517f08c379a00000000000000000000000000000000000000000000000000000000081526004016105da906121b2565b60405180910390fd5b6105ed8383610c8a565b505050565b60006105fe6007610d43565b905061060a3382610d51565b61062c816040518060600160405280602a8152602001612b9c602a9139610d6f565b6106366007610de3565b50565b61064a610644610c82565b82610df9565b610689576040517f08c379a0000000000000000000000000000000000000000000000000000000008152600401610680906122d2565b60405180910390fd5b610694838383610ed7565b505050565b6106b4838383604051806020016040528060008152506108cb565b505050565b6000806002600084815260200190815260200160002060009054906101000a900473ffffffffffffffffffffffffffffffffffffffff169050600073ffffffffffffffffffffffffffffffffffffffff168173ffffffffffffffffffffffffffffffffffffffff161415610762576040517f08c379a0000000000000000000000000000000000000000000000000000000008152600401610759906121f2565b60405180910390fd5b80915050919050565b60008073ffffffffffffffffffffffffffffffffffffffff168273ffffffffffffffffffffffffffffffffffffffff1614156107dc576040517f08c379a00000000000000000000000000000000000000000000000000000000081526004016107d3906121d2565b60405180910390fd5b600360008373ffffffffffffffffffffffffffffffffffffffff1673ffffffffffffffffffffffffffffffffffffffff168152602001908152602001600020549050919050565b60606001805461083290612517565b80601f016020809104026020016040519081016040528092919081815260200182805461085e90612517565b80156108ab5780601f10610880576101008083540402835291602001916108ab565b820191906000526020600020905b81548152906001019060200180831161088e57829003601f168201915b5050505050905090565b6108c76108c0610c82565b838361113e565b5050565b6108dc6108d6610c82565b83610df9565b61091b576040517f08c379a0000000000000000000000000000000000000000000000000000000008152600401610912906122d2565b60405180910390fd5b610927848484846112ab565b50505050565b606061093882610c16565b610977576040517f08c379a000000000000000000000000000000000000000000000000000000000815260040161096e90612252565b60405180910390fd5b600060066000848152602001908152602001600020805461099790612517565b80601f01602080910402602001604051908101604052809291908181526020018280546109c390612517565b8015610a105780601f106109e557610100808354040283529160200191610a10565b820191906000526020600020905b8154815290600101906020018083116109f357829003601f168201915b505050505090506000610a21611307565b9050600081511415610a37578192505050610a7a565b600082511115610a6c578082604051602001610a5492919061202a565b60405160208183030381529060405292505050610a7a565b610a758461131e565b925050505b919050565b6000600560008473ffffffffffffffffffffffffffffffffffffffff1673ffffffffffffffffffffffffffffffffffffffff16815260200190815260200160002060008373ffffffffffffffffffffffffffffffffffffffff1673ffffffffffffffffffffffffffffffffffffffff16815260200190815260200160002060009054906101000a900460ff16905092915050565b610ba981604051602401610b2791906120d0565b6040516020818303038152906040527f41304fac000000000000000000000000000000000000000000000000000000007bffffffffffffffffffffffffffffffffffffffffffffffffffffffff19166020820180517bffffffffffffffffffffffffffffffffffffffffffffffffffffffff83818316178352505050506113c5565b50565b60007f01ffc9a7000000000000000000000000000000000000000000000000000000007bffffffffffffffffffffffffffffffffffffffffffffffffffffffff1916827bffffffffffffffffffffffffffffffffffffffffffffffffffffffff1916149050919050565b60008073ffffffffffffffffffffffffffffffffffffffff166002600084815260200190815260200160002060009054906101000a900473ffffffffffffffffffffffffffffffffffffffff1673ffffffffffffffffffffffffffffffffffffffff1614159050919050565b600033905090565b816004600083815260200190815260200160002060006101000a81548173ffffffffffffffffffffffffffffffffffffffff021916908373ffffffffffffffffffffffffffffffffffffffff160217905550808273ffffffffffffffffffffffffffffffffffffffff16610cfd836106b9565b73ffffffffffffffffffffffffffffffffffffffff167f8c5be1e5ebec7d5bd14f71427d1e84f3dd0314c0f7b2291e5b200ac8c7c3b92560405160405180910390a45050565b600081600001549050919050565b610d6b8282604051806020016040528060008152506113ee565b5050565b610d7882610c16565b610db7576040517f08c379a0000000000000000000000000000000000000000000000000000000008152600401610dae90612212565b60405180910390fd5b80600660008481526020019081526020016000209080519060200190610dde929190611994565b505050565b6001816000016000828254019250508190555050565b6000610e0482610c16565b610e43576040517f08c379a0000000000000000000000000000000000000000000000000000000008152600401610e3a90612192565b60405180910390fd5b6000610e4e836106b9565b90508073ffffffffffffffffffffffffffffffffffffffff168473ffffffffffffffffffffffffffffffffffffffff161480610ebd57508373ffffffffffffffffffffffffffffffffffffffff16610ea584610455565b73ffffffffffffffffffffffffffffffffffffffff16145b80610ece5750610ecd8185610a7f565b5b91505092915050565b8273ffffffffffffffffffffffffffffffffffffffff16610ef7826106b9565b73ffffffffffffffffffffffffffffffffffffffff1614610f4d576040517f08c379a0000000000000000000000000000000000000000000000000000000008152600401610f4490612112565b60405180910390fd5b600073ffffffffffffffffffffffffffffffffffffffff168273ffffffffffffffffffffffffffffffffffffffff161415610fbd576040517f08c379a0000000000000000000000000000000000000000000000000000000008152600401610fb490612152565b60405180910390fd5b610fc8838383611449565b610fd3600082610c8a565b6001600360008573ffffffffffffffffffffffffffffffffffffffff1673ffffffffffffffffffffffffffffffffffffffff1681526020019081526020016000206000828254611023919061242d565b925050819055506001600360008473ffffffffffffffffffffffffffffffffffffffff1673ffffffffffffffffffffffffffffffffffffffff168152602001908152602001600020600082825461107a91906123a6565b92505081905550816002600083815260200190815260200160002060006101000a81548173ffffffffffffffffffffffffffffffffffffffff021916908373ffffffffffffffffffffffffffffffffffffffff160217905550808273ffffffffffffffffffffffffffffffffffffffff168473ffffffffffffffffffffffffffffffffffffffff167fddf252ad1be2c89b69c2b068fc378daa952ba7f163c4a11628f55a4df523b3ef60405160405180910390a461113983838361144e565b505050565b8173ffffffffffffffffffffffffffffffffffffffff168373ffffffffffffffffffffffffffffffffffffffff1614156111ad576040517f08c379a00000000000000000000000000000000000000000000000000000000081526004016111a490612172565b60405180910390fd5b80600560008573ffffffffffffffffffffffffffffffffffffffff1673ffffffffffffffffffffffffffffffffffffffff16815260200190815260200160002060008473ffffffffffffffffffffffffffffffffffffffff1673ffffffffffffffffffffffffffffffffffffffff16815260200190815260200160002060006101000a81548160ff0219169083151502179055508173ffffffffffffffffffffffffffffffffffffffff168373ffffffffffffffffffffffffffffffffffffffff167f17307eab39ab6107e8899845ad3d59bd9653f200f220920489ca2b5937696c318360405161129e91906120b5565b60405180910390a3505050565b6112b6848484610ed7565b6112c284848484611453565b611301576040517f08c379a00000000000000000000000000000000000000000000000000000000081526004016112f8906120f2565b60405180910390fd5b50505050565b606060405180602001604052806000815250905090565b606061132982610c16565b611368576040517f08c379a000000000000000000000000000000000000000000000000000000000815260040161135f90612292565b60405180910390fd5b6000611372611307565b9050600081511161139257604051806020016040528060008152506113bd565b8061139c846115ea565b6040516020016113ad92919061202a565b6040516020818303038152906040525b915050919050565b60008151905060006a636f6e736f6c652e6c6f679050602083016000808483855afa5050505050565b6113f88383611797565b6114056000848484611453565b611444576040517f08c379a000000000000000000000000000000000000000000000000000000000815260040161143b906120f2565b60405180910390fd5b505050565b505050565b505050565b60006114748473ffffffffffffffffffffffffffffffffffffffff16611971565b156115dd578373ffffffffffffffffffffffffffffffffffffffff1663150b7a0261149d610c82565b8786866040518563ffffffff1660e01b81526004016114bf9493929190612069565b602060405180830381600087803b1580156114d957600080fd5b505af192505050801561150a57506040513d601f19601f820116820180604052508101906115079190611cd8565b60015b61158d573d806000811461153a576040519150601f19603f3d011682016040523d82523d6000602084013e61153f565b606091505b50600081511415611585576040517f08c379a000000000000000000000000000000000000000000000000000000000815260040161157c906120f2565b60405180910390fd5b805181602001fd5b63150b7a0260e01b7bffffffffffffffffffffffffffffffffffffffffffffffffffffffff1916817bffffffffffffffffffffffffffffffffffffffffffffffffffffffff1916149150506115e2565b600190505b949350505050565b60606000821415611632576040518060400160405280600181526020017f30000000000000000000000000000000000000000000000000000000000000008152509050611792565b600082905060005b6000821461166457808061164d9061257a565b915050600a8261165d91906123fc565b915061163a565b60008167ffffffffffffffff8111156116a6577f4e487b7100000000000000000000000000000000000000000000000000000000600052604160045260246000fd5b6040519080825280601f01601f1916602001820160405280156116d85781602001600182028036833780820191505090505b5090505b6000851461178b576001826116f1919061242d565b9150600a8561170091906125c3565b603061170c91906123a6565b60f81b818381518110611748577f4e487b7100000000000000000000000000000000000000000000000000000000600052603260045260246000fd5b60200101907effffffffffffffffffffffffffffffffffffffffffffffffffffffffffffff1916908160001a905350600a8561178491906123fc565b94506116dc565b8093505050505b919050565b600073ffffffffffffffffffffffffffffffffffffffff168273ffffffffffffffffffffffffffffffffffffffff161415611807576040517f08c379a00000000000000000000000000000000000000000000000000000000081526004016117fe90612232565b60405180910390fd5b61181081610c16565b15611850576040517f08c379a000000000000000000000000000000000000000000000000000000000815260040161184790612132565b60405180910390fd5b61185c60008383611449565b6001600360008473ffffffffffffffffffffffffffffffffffffffff1673ffffffffffffffffffffffffffffffffffffffff16815260200190815260200160002060008282546118ac91906123a6565b92505081905550816002600083815260200190815260200160002060006101000a81548173ffffffffffffffffffffffffffffffffffffffff021916908373ffffffffffffffffffffffffffffffffffffffff160217905550808273ffffffffffffffffffffffffffffffffffffffff16600073ffffffffffffffffffffffffffffffffffffffff167fddf252ad1be2c89b69c2b068fc378daa952ba7f163c4a11628f55a4df523b3ef60405160405180910390a461196d6000838361144e565b5050565b6000808273ffffffffffffffffffffffffffffffffffffffff163b119050919050565b8280546119a090612517565b90600052602060002090601f0160209004810192826119c25760008555611a09565b82601f106119db57805160ff1916838001178555611a09565b82800160010185558215611a09579182015b82811115611a085782518255916020019190600101906119ed565b5b509050611a169190611a1a565b5090565b5b80821115611a33576000816000905550600101611a1b565b5090565b6000611a4a611a4584612332565b61230d565b905082815260208101848484011115611a6257600080fd5b611a6d8482856124d5565b509392505050565b600081359050611a8481612b3f565b92915050565b600081359050611a9981612b56565b92915050565b600081359050611aae81612b6d565b92915050565b600081519050611ac381612b6d565b92915050565b600082601f830112611ada57600080fd5b8135611aea848260208601611a37565b91505092915050565b600081359050611b0281612b84565b92915050565b600060208284031215611b1a57600080fd5b6000611b2884828501611a75565b91505092915050565b60008060408385031215611b4457600080fd5b6000611b5285828601611a75565b9250506020611b6385828601611a75565b9150509250929050565b600080600060608486031215611b8257600080fd5b6000611b9086828701611a75565b9350506020611ba186828701611a75565b9250506040611bb286828701611af3565b9150509250925092565b60008060008060808587031215611bd257600080fd5b6000611be087828801611a75565b9450506020611bf187828801611a75565b9350506040611c0287828801611af3565b925050606085013567ffffffffffffffff811115611c1f57600080fd5b611c2b87828801611ac9565b91505092959194509250565b60008060408385031215611c4a57600080fd5b6000611c5885828601611a75565b9250506020611c6985828601611a8a565b9150509250929050565b60008060408385031215611c8657600080fd5b6000611c9485828601611a75565b9250506020611ca585828601611af3565b9150509250929050565b600060208284031215611cc157600080fd5b6000611ccf84828501611a9f565b91505092915050565b600060208284031215611cea57600080fd5b6000611cf884828501611ab4565b91505092915050565b600060208284031215611d1357600080fd5b6000611d2184828501611af3565b91505092915050565b611d3381612461565b82525050565b611d4281612473565b82525050565b6000611d5382612363565b611d5d8185612379565b9350611d6d8185602086016124e4565b611d76816126b0565b840191505092915050565b6000611d8c8261236e565b611d96818561238a565b9350611da68185602086016124e4565b611daf816126b0565b840191505092915050565b6000611dc58261236e565b611dcf818561239b565b9350611ddf8185602086016124e4565b80840191505092915050565b6000611df860328361238a565b9150611e03826126c1565b604082019050919050565b6000611e1b60258361238a565b9150611e2682612710565b604082019050919050565b6000611e3e601c8361238a565b9150611e498261275f565b602082019050919050565b6000611e6160248361238a565b9150611e6c82612788565b604082019050919050565b6000611e8460198361238a565b9150611e8f826127d7565b602082019050919050565b6000611ea7602c8361238a565b9150611eb282612800565b604082019050919050565b6000611eca60388361238a565b9150611ed58261284f565b604082019050919050565b6000611eed602a8361238a565b9150611ef88261289e565b604082019050919050565b6000611f1060298361238a565b9150611f1b826128ed565b604082019050919050565b6000611f33602e8361238a565b9150611f3e8261293c565b604082019050919050565b6000611f5660208361238a565b9150611f618261298b565b602082019050919050565b6000611f7960318361238a565b9150611f84826129b4565b604082019050919050565b6000611f9c602c8361238a565b9150611fa782612a03565b604082019050919050565b6000611fbf602f8361238a565b9150611fca82612a52565b604082019050919050565b6000611fe260218361238a565b9150611fed82612aa1565b604082019050919050565b600061200560318361238a565b915061201082612af0565b604082019050919050565b612024816124cb565b82525050565b60006120368285611dba565b91506120428284611dba565b91508190509392505050565b60006020820190506120636000830184611d2a565b92915050565b600060808201905061207e6000830187611d2a565b61208b6020830186611d2a565b612098604083018561201b565b81810360608301526120aa8184611d48565b905095945050505050565b60006020820190506120ca6000830184611d39565b92915050565b600060208201905081810360008301526120ea8184611d81565b905092915050565b6000602082019050818103600083015261210b81611deb565b9050919050565b6000602082019050818103600083015261212b81611e0e565b9050919050565b6000602082019050818103600083015261214b81611e31565b9050919050565b6000602082019050818103600083015261216b81611e54565b9050919050565b6000602082019050818103600083015261218b81611e77565b9050919050565b600060208201905081810360008301526121ab81611e9a565b9050919050565b600060208201905081810360008301526121cb81611ebd565b9050919050565b600060208201905081810360008301526121eb81611ee0565b9050919050565b6000602082019050818103600083015261220b81611f03565b9050919050565b6000602082019050818103600083015261222b81611f26565b9050919050565b6000602082019050818103600083015261224b81611f49565b9050919050565b6000602082019050818103600083015261226b81611f6c565b9050919050565b6000602082019050818103600083015261228b81611f8f565b9050919050565b600060208201905081810360008301526122ab81611fb2565b9050919050565b600060208201905081810360008301526122cb81611fd5565b9050919050565b600060208201905081810360008301526122eb81611ff8565b9050919050565b6000602082019050612307600083018461201b565b92915050565b6000612317612328565b90506123238282612549565b919050565b6000604051905090565b600067ffffffffffffffff82111561234d5761234c612681565b5b612356826126b0565b9050602081019050919050565b600081519050919050565b600081519050919050565b600082825260208201905092915050565b600082825260208201905092915050565b600081905092915050565b60006123b1826124cb565b91506123bc836124cb565b9250827fffffffffffffffffffffffffffffffffffffffffffffffffffffffffffffffff038211156123f1576123f06125f4565b5b828201905092915050565b6000612407826124cb565b9150612412836124cb565b92508261242257612421612623565b5b828204905092915050565b6000612438826124cb565b9150612443836124cb565b925082821015612456576124556125f4565b5b828203905092915050565b600061246c826124ab565b9050919050565b60008115159050919050565b60007fffffffff0000000000000000000000000000000000000000000000000000000082169050919050565b600073ffffffffffffffffffffffffffffffffffffffff82169050919050565b6000819050919050565b82818337600083830152505050565b60005b838110156125025780820151818401526020810190506124e7565b83811115612511576000848401525b50505050565b6000600282049050600182168061252f57607f821691505b6020821081141561254357612542612652565b5b50919050565b612552826126b0565b810181811067ffffffffffffffff8211171561257157612570612681565b5b80604052505050565b6000612585826124cb565b91507fffffffffffffffffffffffffffffffffffffffffffffffffffffffffffffffff8214156125b8576125b76125f4565b5b600182019050919050565b60006125ce826124cb565b91506125d9836124cb565b9250826125e9576125e8612623565b5b828206905092915050565b7f4e487b7100000000000000000000000000000000000000000000000000000000600052601160045260246000fd5b7f4e487b7100000000000000000000000000000000000000000000000000000000600052601260045260246000fd5b7f4e487b7100000000000000000000000000000000000000000000000000000000600052602260045260246000fd5b7f4e487b7100000000000000000000000000000000000000000000000000000000600052604160045260246000fd5b6000601f19601f8301169050919050565b7f4552433732313a207472616e7366657220746f206e6f6e20455243373231526560008201527f63656976657220696d706c656d656e7465720000000000000000000000000000602082015250565b7f4552433732313a207472616e736665722066726f6d20696e636f72726563742060008201527f6f776e6572000000000000000000000000000000000000000000000000000000602082015250565b7f4552433732313a20746f6b656e20616c7265616479206d696e74656400000000600082015250565b7f4552433732313a207472616e7366657220746f20746865207a65726f2061646460008201527f7265737300000000000000000000000000000000000000000000000000000000602082015250565b7f4552433732313a20617070726f766520746f2063616c6c657200000000000000600082015250565b7f4552433732313a206f70657261746f7220717565727920666f72206e6f6e657860008201527f697374656e7420746f6b656e0000000000000000000000000000000000000000602082015250565b7f4552433732313a20617070726f76652063616c6c6572206973206e6f74206f7760008201527f6e6572206e6f7220617070726f76656420666f7220616c6c0000000000000000602082015250565b7f4552433732313a2062616c616e636520717565727920666f7220746865207a6560008201527f726f206164647265737300000000000000000000000000000000000000000000602082015250565b7f4552433732313a206f776e657220717565727920666f72206e6f6e657869737460008201527f656e7420746f6b656e0000000000000000000000000000000000000000000000602082015250565b7f45524337323155524953746f726167653a2055524920736574206f66206e6f6e60008201527f6578697374656e7420746f6b656e000000000000000000000000000000000000602082015250565b7f4552433732313a206d696e7420746f20746865207a65726f2061646472657373600082015250565b7f45524337323155524953746f726167653a2055524920717565727920666f722060008201527f6e6f6e6578697374656e7420746f6b656e000000000000000000000000000000602082015250565b7f4552433732313a20617070726f76656420717565727920666f72206e6f6e657860008201527f697374656e7420746f6b656e0000000000000000000000000000000000000000602082015250565b7f4552433732314d657461646174613a2055524920717565727920666f72206e6f60008201527f6e6578697374656e7420746f6b656e0000000000000000000000000000000000602082015250565b7f4552433732313a20617070726f76616c20746f2063757272656e74206f776e6560008201527f7200000000000000000000000000000000000000000000000000000000000000602082015250565b7f4552433732313a207472616e736665722063616c6c6572206973206e6f74206f60008201527f776e6572206e6f7220617070726f766564000000000000000000000000000000602082015250565b612b4881612461565b8114612b5357600080fd5b50565b612b5f81612473565b8114612b6a57600080fd5b50565b612b768161247f565b8114612b8157600080fd5b50565b612b8d816124cb565b8114612b9857600080fd5b5056fe68747470733a2f2f6170692e6e706f696e742e696f2f3531303633353633633630333666333030343163a264697066735822122067fe51b6598377fb4ff82ef301f9df9aeb7a157d92f62e341014c32b9fbbe2a864736f6c63430008040033",
  "linkReferences": {},
  "deployedLinkReferences": {}
}