{
  "_format": "hh-sol-artifact-1",
  "contractName": "FightNFT",
  "sourceName": "contracts/FightNFT.sol",
  "abi": [
    {
      "inputs": [],
      "stateMutability": "nonpayable",
      "type": "constructor"
    },
    {
      "anonymous": false,
      "inputs": [
        {
          "indexed": true,
          "internalType": "address",
          "name": "owner",
          "type": "address"
        },
        {
          "indexed": true,
          "internalType": "address",
          "name": "approved",
          "type": "address"
        },
        {
          "indexed": true,
          "internalType": "uint256",
          "name": "tokenId",
          "type": "uint256"
        }
      ],
      "name": "Approval",
      "type": "event"
    },
    {
      "anonymous": false,
      "inputs": [
        {
          "indexed": true,
          "internalType": "address",
          "name": "owner",
          "type": "address"
        },
        {
          "indexed": true,
          "internalType": "address",
          "name": "operator",
          "type": "address"
        },
        {
          "indexed": false,
          "internalType": "bool",
          "name": "approved",
          "type": "bool"
        }
      ],
      "name": "ApprovalForAll",
      "type": "event"
    },
    {
      "anonymous": false,
      "inputs": [
        {
          "indexed": true,
          "internalType": "address",
          "name": "from",
          "type": "address"
        },
        {
          "indexed": true,
          "internalType": "address",
          "name": "to",
          "type": "address"
        },
        {
          "indexed": true,
          "internalType": "uint256",
          "name": "tokenId",
          "type": "uint256"
        }
      ],
      "name": "Transfer",
      "type": "event"
    },
    {
      "inputs": [
        {
          "internalType": "address",
          "name": "to",
          "type": "address"
        },
        {
          "internalType": "uint256",
          "name": "tokenId",
          "type": "uint256"
        }
      ],
      "name": "approve",
      "outputs": [],
      "stateMutability": "nonpayable",
      "type": "function"
    },
    {
      "inputs": [
        {
          "internalType": "address",
          "name": "owner",
          "type": "address"
        }
      ],
      "name": "balanceOf",
      "outputs": [
        {
          "internalType": "uint256",
          "name": "",
          "type": "uint256"
        }
      ],
      "stateMutability": "view",
      "type": "function"
    },
    {
      "inputs": [
        {
          "internalType": "uint256",
          "name": "tokenId",
          "type": "uint256"
        }
      ],
      "name": "getApproved",
      "outputs": [
        {
          "internalType": "address",
          "name": "",
          "type": "address"
        }
      ],
      "stateMutability": "view",
      "type": "function"
    },
    {
      "inputs": [
        {
          "internalType": "address",
          "name": "owner",
          "type": "address"
        },
        {
          "internalType": "address",
          "name": "operator",
          "type": "address"
        }
      ],
      "name": "isApprovedForAll",
      "outputs": [
        {
          "internalType": "bool",
          "name": "",
          "type": "bool"
        }
      ],
      "stateMutability": "view",
      "type": "function"
    },
    {
      "inputs": [],
      "name": "mintNFT",
      "outputs": [],
      "stateMutability": "nonpayable",
      "type": "function"
    },
    {
      "inputs": [],
      "name": "name",
      "outputs": [
        {
          "internalType": "string",
          "name": "",
          "type": "string"
        }
      ],
      "stateMutability": "view",
      "type": "function"
    },
    {
      "inputs": [
        {
          "internalType": "uint256",
          "name": "tokenId",
          "type": "uint256"
        }
      ],
      "name": "ownerOf",
      "outputs": [
        {
          "internalType": "address",
          "name": "",
          "type": "address"
        }
      ],
      "stateMutability": "view",
      "type": "function"
    },
    {
      "inputs": [
        {
          "internalType": "address",
          "name": "from",
          "type": "address"
        },
        {
          "internalType": "address",
          "name": "to",
          "type": "address"
        },
        {
          "internalType": "uint256",
          "name": "tokenId",
          "type": "uint256"
        }
      ],
      "name": "safeTransferFrom",
      "outputs": [],
      "stateMutability": "nonpayable",
      "type": "function"
    },
    {
      "inputs": [
        {
          "internalType": "address",
          "name": "from",
          "type": "address"
        },
        {
          "internalType": "address",
          "name": "to",
          "type": "address"
        },
        {
          "internalType": "uint256",
          "name": "tokenId",
          "type": "uint256"
        },
        {
          "internalType": "bytes",
          "name": "_data",
          "type": "bytes"
        }
      ],
      "name": "safeTransferFrom",
      "outputs": [],
      "stateMutability": "nonpayable",
      "type": "function"
    },
    {
      "inputs": [
        {
          "internalType": "address",
          "name": "operator",
          "type": "address"
        },
        {
          "internalType": "bool",
          "name": "approved",
          "type": "bool"
        }
      ],
      "name": "setApprovalForAll",
      "outputs": [],
      "stateMutability": "nonpayable",
      "type": "function"
    },
    {
      "inputs": [
        {
          "internalType": "bytes4",
          "name": "interfaceId",
          "type": "bytes4"
        }
      ],
      "name": "supportsInterface",
      "outputs": [
        {
          "internalType": "bool",
          "name": "",
          "type": "bool"
        }
      ],
      "stateMutability": "view",
      "type": "function"
    },
    {
      "inputs": [],
      "name": "symbol",
      "outputs": [
        {
          "internalType": "string",
          "name": "",
          "type": "string"
        }
      ],
      "stateMutability": "view",
      "type": "function"
    },
    {
      "inputs": [
        {
          "internalType": "uint256",
          "name": "tokenId",
          "type": "uint256"
        }
      ],
      "name": "tokenURI",
      "outputs": [
        {
          "internalType": "string",
          "name": "",
          "type": "string"
        }
      ],
      "stateMutability": "view",
      "type": "function"
    },
    {
      "inputs": [
        {
          "internalType": "address",
          "name": "from",
          "type": "address"
        },
        {
          "internalType": "address",
          "name": "to",
          "type": "address"
        },
        {
          "internalType": "uint256",
          "name": "tokenId",
          "type": "uint256"
        }
      ],
      "name": "transferFrom",
      "outputs": [],
      "stateMutability": "nonpayable",
      "type": "function"
    }
  ],
  "bytecode": "0x60806040523480156200001157600080fd5b506040518060400160405280600981526020017f5371756172654e465400000000000000000000000000000000000000000000008152506040518060400160405280600681526020017f5351554152450000000000000000000000000000000000000000000000000000815250816000908051906020019062000096929190620001cf565b508060019080519060200190620000af929190620001cf565b505050620000fd6040518060400160405280601e81526020017f54686973206973206d79204e465420636f6e74726163742e20576f61682100008152506200010360201b62000b4d1760201c565b620003ac565b620001a3816040516024016200011a9190620002c0565b6040516020818303038152906040527f41304fac000000000000000000000000000000000000000000000000000000007bffffffffffffffffffffffffffffffffffffffffffffffffffffffff19166020820180517bffffffffffffffffffffffffffffffffffffffffffffffffffffffff8381831617835250505050620001a660201b60201c565b50565b60008151905060006a636f6e736f6c652e6c6f679050602083016000808483855afa5050505050565b828054620001dd9062000336565b90600052602060002090601f0160209004810192826200020157600085556200024d565b82601f106200021c57805160ff19168380011785556200024d565b828001600101855582156200024d579182015b828111156200024c5782518255916020019190600101906200022f565b5b5090506200025c919062000260565b5090565b5b808211156200027b57600081600090555060010162000261565b5090565b60006200028c82620002e4565b620002988185620002ef565b9350620002aa81856020860162000300565b620002b5816200039b565b840191505092915050565b60006020820190508181036000830152620002dc81846200027f565b905092915050565b600081519050919050565b600082825260208201905092915050565b60005b838110156200032057808201518184015260208101905062000303565b8381111562000330576000848401525b50505050565b600060028204905060018216806200034f57607f821691505b602082108114156200036657620003656200036c565b5b50919050565b7f4e487b7100000000000000000000000000000000000000000000000000000000600052602260045260246000fd5b6000601f19601f8301169050919050565b6134ac80620003bc6000396000f3fe608060405234801561001057600080fd5b50600436106100ea5760003560e01c80636352211e1161008c578063a22cb46511610066578063a22cb46514610249578063b88d4fde14610265578063c87b56dd14610281578063e985e9c5146102b1576100ea565b80636352211e146101cb57806370a08231146101fb57806395d89b411461022b576100ea565b8063095ea7b3116100c8578063095ea7b31461016d57806314f710fe1461018957806323b872dd1461019357806342842e0e146101af576100ea565b806301ffc9a7146100ef57806306fdde031461011f578063081812fc1461013d575b600080fd5b61010960048036038101906101049190612006565b6102e1565b6040516101169190612531565b60405180910390f35b6101276103c3565b604051610134919061254c565b60405180910390f35b61015760048036038101906101529190612058565b610455565b60405161016491906124ca565b60405180910390f35b61018760048036038101906101829190611fca565b6104da565b005b6101916105f2565b005b6101ad60048036038101906101a89190611ec4565b610673565b005b6101c960048036038101906101c49190611ec4565b6106d3565b005b6101e560048036038101906101e09190612058565b6106f3565b6040516101f291906124ca565b60405180910390f35b61021560048036038101906102109190611e5f565b6107a5565b604051610222919061276e565b60405180910390f35b61023361085d565b604051610240919061254c565b60405180910390f35b610263600480360381019061025e9190611f8e565b6108ef565b005b61027f600480360381019061027a9190611f13565b610905565b005b61029b60048036038101906102969190612058565b610967565b6040516102a8919061254c565b60405180910390f35b6102cb60048036038101906102c69190611e88565b610ab9565b6040516102d89190612531565b60405180910390f35b60007f80ac58cd000000000000000000000000000000000000000000000000000000007bffffffffffffffffffffffffffffffffffffffffffffffffffffffff1916827bffffffffffffffffffffffffffffffffffffffffffffffffffffffff191614806103ac57507f5b5e139f000000000000000000000000000000000000000000000000000000007bffffffffffffffffffffffffffffffffffffffffffffffffffffffff1916827bffffffffffffffffffffffffffffffffffffffffffffffffffffffff1916145b806103bc57506103bb82610be6565b5b9050919050565b6060600080546103d2906129ed565b80601f01602080910402602001604051908101604052809291908181526020018280546103fe906129ed565b801561044b5780601f106104205761010080835404028352916020019161044b565b820191906000526020600020905b81548152906001019060200180831161042e57829003601f168201915b5050505050905090565b600061046082610c50565b61049f576040517f08c379a0000000000000000000000000000000000000000000000000000000008152600401610496906126ee565b60405180910390fd5b6004600083815260200190815260200160002060009054906101000a900473ffffffffffffffffffffffffffffffffffffffff169050919050565b60006104e5826106f3565b90508073ffffffffffffffffffffffffffffffffffffffff168373ffffffffffffffffffffffffffffffffffffffff161415610556576040517f08c379a000000000000000000000000000000000000000000000000000000000815260040161054d9061272e565b60405180910390fd5b8073ffffffffffffffffffffffffffffffffffffffff16610575610cbc565b73ffffffffffffffffffffffffffffffffffffffff1614806105a457506105a38161059e610cbc565b610ab9565b5b6105e3576040517f08c379a00000000000000000000000000000000000000000000000000000000081526004016105da9061262e565b60405180910390fd5b6105ed8383610cc4565b505050565b60046105fe6007610d7d565b1061060857600080fd5b60006106146007610d7d565b9050600061062182610d8b565b90506000816040516020016106369190612493565b604051602081830303815290604052905061065081610b4d565b61065a3384610eea565b6106648382610f08565b61066e6007610f7c565b505050565b61068461067e610cbc565b82610f92565b6106c3576040517f08c379a00000000000000000000000000000000000000000000000000000000081526004016106ba9061274e565b60405180910390fd5b6106ce838383611070565b505050565b6106ee83838360405180602001604052806000815250610905565b505050565b6000806002600084815260200190815260200160002060009054906101000a900473ffffffffffffffffffffffffffffffffffffffff169050600073ffffffffffffffffffffffffffffffffffffffff168173ffffffffffffffffffffffffffffffffffffffff16141561079c576040517f08c379a00000000000000000000000000000000000000000000000000000000081526004016107939061266e565b60405180910390fd5b80915050919050565b60008073ffffffffffffffffffffffffffffffffffffffff168273ffffffffffffffffffffffffffffffffffffffff161415610816576040517f08c379a000000000000000000000000000000000000000000000000000000000815260040161080d9061264e565b60405180910390fd5b600360008373ffffffffffffffffffffffffffffffffffffffff1673ffffffffffffffffffffffffffffffffffffffff168152602001908152602001600020549050919050565b60606001805461086c906129ed565b80601f0160208091040260200160405190810160405280929190818152602001828054610898906129ed565b80156108e55780601f106108ba576101008083540402835291602001916108e5565b820191906000526020600020905b8154815290600101906020018083116108c857829003601f168201915b5050505050905090565b6109016108fa610cbc565b83836112d7565b5050565b610916610910610cbc565b83610f92565b610955576040517f08c379a000000000000000000000000000000000000000000000000000000000815260040161094c9061274e565b60405180910390fd5b61096184848484611444565b50505050565b606061097282610c50565b6109b1576040517f08c379a00000000000000000000000000000000000000000000000000000000081526004016109a8906126ce565b60405180910390fd5b60006006600084815260200190815260200160002080546109d1906129ed565b80601f01602080910402602001604051908101604052809291908181526020018280546109fd906129ed565b8015610a4a5780601f10610a1f57610100808354040283529160200191610a4a565b820191906000526020600020905b815481529060010190602001808311610a2d57829003601f168201915b505050505090506000610a5b6114a0565b9050600081511415610a71578192505050610ab4565b600082511115610aa6578082604051602001610a8e929190612430565b60405160208183030381529060405292505050610ab4565b610aaf846114b7565b925050505b919050565b6000600560008473ffffffffffffffffffffffffffffffffffffffff1673ffffffffffffffffffffffffffffffffffffffff16815260200190815260200160002060008373ffffffffffffffffffffffffffffffffffffffff1673ffffffffffffffffffffffffffffffffffffffff16815260200190815260200160002060009054906101000a900460ff16905092915050565b610be381604051602401610b61919061254c565b6040516020818303038152906040527f41304fac000000000000000000000000000000000000000000000000000000007bffffffffffffffffffffffffffffffffffffffffffffffffffffffff19166020820180517bffffffffffffffffffffffffffffffffffffffffffffffffffffffff838183161783525050505061155e565b50565b60007f01ffc9a7000000000000000000000000000000000000000000000000000000007bffffffffffffffffffffffffffffffffffffffffffffffffffffffff1916827bffffffffffffffffffffffffffffffffffffffffffffffffffffffff1916149050919050565b60008073ffffffffffffffffffffffffffffffffffffffff166002600084815260200190815260200160002060009054906101000a900473ffffffffffffffffffffffffffffffffffffffff1673ffffffffffffffffffffffffffffffffffffffff1614159050919050565b600033905090565b816004600083815260200190815260200160002060006101000a81548173ffffffffffffffffffffffffffffffffffffffff021916908373ffffffffffffffffffffffffffffffffffffffff160217905550808273ffffffffffffffffffffffffffffffffffffffff16610d37836106f3565b73ffffffffffffffffffffffffffffffffffffffff167f8c5be1e5ebec7d5bd14f71427d1e84f3dd0314c0f7b2291e5b200ac8c7c3b92560405160405180910390a45050565b600081600001549050919050565b60606000610db5604051602001610da19061247e565b604051602081830303815290604052611587565b90506000610ddf604051602001610dcb906124b5565b604051602081830303815290604052611587565b90506000610e09604051602001610df590612469565b604051602081830303815290604052611587565b90506000610e33604051602001610e1f90612454565b604051602081830303815290604052611587565b905060006040518060200160405280600081525090506000871415610e5a57849050610edc565b6001871415610e6b57839050610edb565b6002871415610e7c57829050610eda565b6003871415610e8d57819050610ed9565b6003871115610ed8576040518060400160405280600581526020017f66616c736500000000000000000000000000000000000000000000000000000081525095505050505050610ee5565b5b5b5b5b80955050505050505b919050565b610f04828260405180602001604052806000815250611745565b5050565b610f1182610c50565b610f50576040517f08c379a0000000000000000000000000000000000000000000000000000000008152600401610f479061268e565b60405180910390fd5b80600660008481526020019081526020016000209080519060200190610f77929190611ceb565b505050565b6001816000016000828254019250508190555050565b6000610f9d82610c50565b610fdc576040517f08c379a0000000000000000000000000000000000000000000000000000000008152600401610fd39061260e565b60405180910390fd5b6000610fe7836106f3565b90508073ffffffffffffffffffffffffffffffffffffffff168473ffffffffffffffffffffffffffffffffffffffff16148061105657508373ffffffffffffffffffffffffffffffffffffffff1661103e84610455565b73ffffffffffffffffffffffffffffffffffffffff16145b8061106757506110668185610ab9565b5b91505092915050565b8273ffffffffffffffffffffffffffffffffffffffff16611090826106f3565b73ffffffffffffffffffffffffffffffffffffffff16146110e6576040517f08c379a00000000000000000000000000000000000000000000000000000000081526004016110dd9061258e565b60405180910390fd5b600073ffffffffffffffffffffffffffffffffffffffff168273ffffffffffffffffffffffffffffffffffffffff161415611156576040517f08c379a000000000000000000000000000000000000000000000000000000000815260040161114d906125ce565b60405180910390fd5b6111618383836117a0565b61116c600082610cc4565b6001600360008573ffffffffffffffffffffffffffffffffffffffff1673ffffffffffffffffffffffffffffffffffffffff16815260200190815260200160002060008282546111bc9190612903565b925050819055506001600360008473ffffffffffffffffffffffffffffffffffffffff1673ffffffffffffffffffffffffffffffffffffffff16815260200190815260200160002060008282546112139190612822565b92505081905550816002600083815260200190815260200160002060006101000a81548173ffffffffffffffffffffffffffffffffffffffff021916908373ffffffffffffffffffffffffffffffffffffffff160217905550808273ffffffffffffffffffffffffffffffffffffffff168473ffffffffffffffffffffffffffffffffffffffff167fddf252ad1be2c89b69c2b068fc378daa952ba7f163c4a11628f55a4df523b3ef60405160405180910390a46112d28383836117a5565b505050565b8173ffffffffffffffffffffffffffffffffffffffff168373ffffffffffffffffffffffffffffffffffffffff161415611346576040517f08c379a000000000000000000000000000000000000000000000000000000000815260040161133d906125ee565b60405180910390fd5b80600560008573ffffffffffffffffffffffffffffffffffffffff1673ffffffffffffffffffffffffffffffffffffffff16815260200190815260200160002060008473ffffffffffffffffffffffffffffffffffffffff1673ffffffffffffffffffffffffffffffffffffffff16815260200190815260200160002060006101000a81548160ff0219169083151502179055508173ffffffffffffffffffffffffffffffffffffffff168373ffffffffffffffffffffffffffffffffffffffff167f17307eab39ab6107e8899845ad3d59bd9653f200f220920489ca2b5937696c31836040516114379190612531565b60405180910390a3505050565b61144f848484611070565b61145b848484846117aa565b61149a576040517f08c379a00000000000000000000000000000000000000000000000000000000081526004016114919061256e565b60405180910390fd5b50505050565b606060405180602001604052806000815250905090565b60606114c282610c50565b611501576040517f08c379a00000000000000000000000000000000000000000000000000000000081526004016114f89061270e565b60405180910390fd5b600061150b6114a0565b9050600081511161152b5760405180602001604052806000815250611556565b8061153584611941565b604051602001611546929190612430565b6040516020818303038152906040525b915050919050565b60008151905060006a636f6e736f6c652e6c6f679050602083016000808483855afa5050505050565b606060008251905060008114156115b05760405180602001604052806000815250915050611740565b600060036002836115c19190612822565b6115cb9190612878565b60046115d791906128a9565b905060006020826115e89190612822565b67ffffffffffffffff811115611627577f4e487b7100000000000000000000000000000000000000000000000000000000600052604160045260246000fd5b6040519080825280601f01601f1916602001820160405280156116595781602001600182028036833780820191505090505b5090506000604051806060016040528060408152602001613437604091399050600181016020830160005b868110156116fd5760038101905062ffffff818a015116603f8160121c168401518060081b905060ff603f83600c1c1686015116810190508060081b905060ff603f8360061c1686015116810190508060081b905060ff603f831686015116810190508060e01b90508084526004840193505050611684565b506003860660018114611717576002811461172757611732565b613d3d60f01b6002830352611732565b603d60f81b60018303525b508484525050819450505050505b919050565b61174f8383611aee565b61175c60008484846117aa565b61179b576040517f08c379a00000000000000000000000000000000000000000000000000000000081526004016117929061256e565b60405180910390fd5b505050565b505050565b505050565b60006117cb8473ffffffffffffffffffffffffffffffffffffffff16611cc8565b15611934578373ffffffffffffffffffffffffffffffffffffffff1663150b7a026117f4610cbc565b8786866040518563ffffffff1660e01b815260040161181694939291906124e5565b602060405180830381600087803b15801561183057600080fd5b505af192505050801561186157506040513d601f19601f8201168201806040525081019061185e919061202f565b60015b6118e4573d8060008114611891576040519150601f19603f3d011682016040523d82523d6000602084013e611896565b606091505b506000815114156118dc576040517f08c379a00000000000000000000000000000000000000000000000000000000081526004016118d39061256e565b60405180910390fd5b805181602001fd5b63150b7a0260e01b7bffffffffffffffffffffffffffffffffffffffffffffffffffffffff1916817bffffffffffffffffffffffffffffffffffffffffffffffffffffffff191614915050611939565b600190505b949350505050565b60606000821415611989576040518060400160405280600181526020017f30000000000000000000000000000000000000000000000000000000000000008152509050611ae9565b600082905060005b600082146119bb5780806119a490612a50565b915050600a826119b49190612878565b9150611991565b60008167ffffffffffffffff8111156119fd577f4e487b7100000000000000000000000000000000000000000000000000000000600052604160045260246000fd5b6040519080825280601f01601f191660200182016040528015611a2f5781602001600182028036833780820191505090505b5090505b60008514611ae257600182611a489190612903565b9150600a85611a579190612a99565b6030611a639190612822565b60f81b818381518110611a9f577f4e487b7100000000000000000000000000000000000000000000000000000000600052603260045260246000fd5b60200101907effffffffffffffffffffffffffffffffffffffffffffffffffffffffffffff1916908160001a905350600a85611adb9190612878565b9450611a33565b8093505050505b919050565b600073ffffffffffffffffffffffffffffffffffffffff168273ffffffffffffffffffffffffffffffffffffffff161415611b5e576040517f08c379a0000000000000000000000000000000000000000000000000000000008152600401611b55906126ae565b60405180910390fd5b611b6781610c50565b15611ba7576040517f08c379a0000000000000000000000000000000000000000000000000000000008152600401611b9e906125ae565b60405180910390fd5b611bb3600083836117a0565b6001600360008473ffffffffffffffffffffffffffffffffffffffff1673ffffffffffffffffffffffffffffffffffffffff1681526020019081526020016000206000828254611c039190612822565b92505081905550816002600083815260200190815260200160002060006101000a81548173ffffffffffffffffffffffffffffffffffffffff021916908373ffffffffffffffffffffffffffffffffffffffff160217905550808273ffffffffffffffffffffffffffffffffffffffff16600073ffffffffffffffffffffffffffffffffffffffff167fddf252ad1be2c89b69c2b068fc378daa952ba7f163c4a11628f55a4df523b3ef60405160405180910390a4611cc4600083836117a5565b5050565b6000808273ffffffffffffffffffffffffffffffffffffffff163b119050919050565b828054611cf7906129ed565b90600052602060002090601f016020900481019282611d195760008555611d60565b82601f10611d3257805160ff1916838001178555611d60565b82800160010185558215611d60579182015b82811115611d5f578251825591602001919060010190611d44565b5b509050611d6d9190611d71565b5090565b5b80821115611d8a576000816000905550600101611d72565b5090565b6000611da1611d9c846127ae565b612789565b905082815260208101848484011115611db957600080fd5b611dc48482856129ab565b509392505050565b600081359050611ddb816133da565b92915050565b600081359050611df0816133f1565b92915050565b600081359050611e0581613408565b92915050565b600081519050611e1a81613408565b92915050565b600082601f830112611e3157600080fd5b8135611e41848260208601611d8e565b91505092915050565b600081359050611e598161341f565b92915050565b600060208284031215611e7157600080fd5b6000611e7f84828501611dcc565b91505092915050565b60008060408385031215611e9b57600080fd5b6000611ea985828601611dcc565b9250506020611eba85828601611dcc565b9150509250929050565b600080600060608486031215611ed957600080fd5b6000611ee786828701611dcc565b9350506020611ef886828701611dcc565b9250506040611f0986828701611e4a565b9150509250925092565b60008060008060808587031215611f2957600080fd5b6000611f3787828801611dcc565b9450506020611f4887828801611dcc565b9350506040611f5987828801611e4a565b925050606085013567ffffffffffffffff811115611f7657600080fd5b611f8287828801611e20565b91505092959194509250565b60008060408385031215611fa157600080fd5b6000611faf85828601611dcc565b9250506020611fc085828601611de1565b9150509250929050565b60008060408385031215611fdd57600080fd5b6000611feb85828601611dcc565b9250506020611ffc85828601611e4a565b9150509250929050565b60006020828403121561201857600080fd5b600061202684828501611df6565b91505092915050565b60006020828403121561204157600080fd5b600061204f84828501611e0b565b91505092915050565b60006020828403121561206a57600080fd5b600061207884828501611e4a565b91505092915050565b61208a81612937565b82525050565b61209981612949565b82525050565b60006120aa826127df565b6120b481856127f5565b93506120c48185602086016129ba565b6120cd81612b86565b840191505092915050565b60006120e3826127ea565b6120ed8185612806565b93506120fd8185602086016129ba565b61210681612b86565b840191505092915050565b600061211c826127ea565b6121268185612817565b93506121368185602086016129ba565b80840191505092915050565b600061214f60bf83612817565b915061215a82612b97565b60bf82019050919050565b600061217260ac83612817565b915061217d82612c7e565b60ac82019050919050565b6000612195603283612806565b91506121a082612d65565b604082019050919050565b60006121b8602583612806565b91506121c382612db4565b604082019050919050565b60006121db601c83612806565b91506121e682612e03565b602082019050919050565b60006121fe602483612806565b915061220982612e2c565b604082019050919050565b6000612221601983612806565b915061222c82612e7b565b602082019050919050565b6000612244602c83612806565b915061224f82612ea4565b604082019050919050565b6000612267603883612806565b915061227282612ef3565b604082019050919050565b600061228a602a83612806565b915061229582612f42565b604082019050919050565b60006122ad602983612806565b91506122b882612f91565b604082019050919050565b60006122d0602e83612806565b91506122db82612fe0565b604082019050919050565b60006122f3602083612806565b91506122fe8261302f565b602082019050919050565b6000612316603183612806565b915061232182613058565b604082019050919050565b6000612339602c83612806565b9150612344826130a7565b604082019050919050565b600061235c602f83612806565b9150612367826130f6565b604082019050919050565b600061237f602183612806565b915061238a82613145565b604082019050919050565b60006123a260aa83612817565b91506123ad82613194565b60aa82019050919050565b60006123c5601d83612817565b91506123d08261327b565b601d82019050919050565b60006123e860b483612817565b91506123f3826132a4565b60b482019050919050565b600061240b603183612806565b91506124168261338b565b604082019050919050565b61242a816129a1565b82525050565b600061243c8285612111565b91506124488284612111565b91508190509392505050565b600061245f82612142565b9150819050919050565b600061247482612165565b9150819050919050565b600061248982612395565b9150819050919050565b600061249e826123b8565b91506124aa8284612111565b915081905092915050565b60006124c0826123db565b9150819050919050565b60006020820190506124df6000830184612081565b92915050565b60006080820190506124fa6000830187612081565b6125076020830186612081565b6125146040830185612421565b8181036060830152612526818461209f565b905095945050505050565b60006020820190506125466000830184612090565b92915050565b6000602082019050818103600083015261256681846120d8565b905092915050565b6000602082019050818103600083015261258781612188565b9050919050565b600060208201905081810360008301526125a7816121ab565b9050919050565b600060208201905081810360008301526125c7816121ce565b9050919050565b600060208201905081810360008301526125e7816121f1565b9050919050565b6000602082019050818103600083015261260781612214565b9050919050565b6000602082019050818103600083015261262781612237565b9050919050565b600060208201905081810360008301526126478161225a565b9050919050565b600060208201905081810360008301526126678161227d565b9050919050565b60006020820190508181036000830152612687816122a0565b9050919050565b600060208201905081810360008301526126a7816122c3565b9050919050565b600060208201905081810360008301526126c7816122e6565b9050919050565b600060208201905081810360008301526126e781612309565b9050919050565b600060208201905081810360008301526127078161232c565b9050919050565b600060208201905081810360008301526127278161234f565b9050919050565b6000602082019050818103600083015261274781612372565b9050919050565b60006020820190508181036000830152612767816123fe565b9050919050565b60006020820190506127836000830184612421565b92915050565b60006127936127a4565b905061279f8282612a1f565b919050565b6000604051905090565b600067ffffffffffffffff8211156127c9576127c8612b57565b5b6127d282612b86565b9050602081019050919050565b600081519050919050565b600081519050919050565b600082825260208201905092915050565b600082825260208201905092915050565b600081905092915050565b600061282d826129a1565b9150612838836129a1565b9250827fffffffffffffffffffffffffffffffffffffffffffffffffffffffffffffffff0382111561286d5761286c612aca565b5b828201905092915050565b6000612883826129a1565b915061288e836129a1565b92508261289e5761289d612af9565b5b828204905092915050565b60006128b4826129a1565b91506128bf836129a1565b9250817fffffffffffffffffffffffffffffffffffffffffffffffffffffffffffffffff04831182151516156128f8576128f7612aca565b5b828202905092915050565b600061290e826129a1565b9150612919836129a1565b92508282101561292c5761292b612aca565b5b828203905092915050565b600061294282612981565b9050919050565b60008115159050919050565b60007fffffffff0000000000000000000000000000000000000000000000000000000082169050919050565b600073ffffffffffffffffffffffffffffffffffffffff82169050919050565b6000819050919050565b82818337600083830152505050565b60005b838110156129d85780820151818401526020810190506129bd565b838111156129e7576000848401525b50505050565b60006002820490506001821680612a0557607f821691505b60208210811415612a1957612a18612b28565b5b50919050565b612a2882612b86565b810181811067ffffffffffffffff82111715612a4757612a46612b57565b5b80604052505050565b6000612a5b826129a1565b91507fffffffffffffffffffffffffffffffffffffffffffffffffffffffffffffffff821415612a8e57612a8d612aca565b5b600182019050919050565b6000612aa4826129a1565b9150612aaf836129a1565b925082612abf57612abe612af9565b5b828206905092915050565b7f4e487b7100000000000000000000000000000000000000000000000000000000600052601160045260246000fd5b7f4e487b7100000000000000000000000000000000000000000000000000000000600052601260045260246000fd5b7f4e487b7100000000000000000000000000000000000000000000000000000000600052602260045260246000fd5b7f4e487b7100000000000000000000000000000000000000000000000000000000600052604160045260246000fd5b6000601f19601f8301169050919050565b7f7b226e616d65223a20224e696e6a61222c2022696d616765223a20226874747060008201527f733a2f2f692e706f7374696d672e63632f4b596846713052432f53707269746560208201527f2d53686565742e706e67222c20226465736372697074696f6e223a202241207360408201527f696c656e74206865726f2e204120776174636866756c2070726f746563746f7260608201527f2e222c2022616e696d6174696f6e5f75726c223a202268747470733a2f2f692e60808201527f706f7374696d672e63632f5930444d646b57782f6e696e6a612e706e67227d0060a082015250565b7f7b226e616d65223a202253616d757269222c2022696d616765223a202268747460008201527f70733a2f2f692e706f7374696d672e63632f6e633176635774472f537072697460208201527f652d53686565742e706e67222c20226465736372697074696f6e223a2022412060408201527f706f77657266756c20666f652e222c2022616e696d6174696f6e5f75726c223a60608201527f202268747470733a2f2f692e706f7374696d672e63632f70566847725230592f60808201527f6b6e696768742e706e67227d000000000000000000000000000000000000000060a082015250565b7f4552433732313a207472616e7366657220746f206e6f6e20455243373231526560008201527f63656976657220696d706c656d656e7465720000000000000000000000000000602082015250565b7f4552433732313a207472616e736665722066726f6d20696e636f72726563742060008201527f6f776e6572000000000000000000000000000000000000000000000000000000602082015250565b7f4552433732313a20746f6b656e20616c7265616479206d696e74656400000000600082015250565b7f4552433732313a207472616e7366657220746f20746865207a65726f2061646460008201527f7265737300000000000000000000000000000000000000000000000000000000602082015250565b7f4552433732313a20617070726f766520746f2063616c6c657200000000000000600082015250565b7f4552433732313a206f70657261746f7220717565727920666f72206e6f6e657860008201527f697374656e7420746f6b656e0000000000000000000000000000000000000000602082015250565b7f4552433732313a20617070726f76652063616c6c6572206973206e6f74206f7760008201527f6e6572206e6f7220617070726f76656420666f7220616c6c0000000000000000602082015250565b7f4552433732313a2062616c616e636520717565727920666f7220746865207a6560008201527f726f206164647265737300000000000000000000000000000000000000000000602082015250565b7f4552433732313a206f776e657220717565727920666f72206e6f6e657869737460008201527f656e7420746f6b656e0000000000000000000000000000000000000000000000602082015250565b7f45524337323155524953746f726167653a2055524920736574206f66206e6f6e60008201527f6578697374656e7420746f6b656e000000000000000000000000000000000000602082015250565b7f4552433732313a206d696e7420746f20746865207a65726f2061646472657373600082015250565b7f45524337323155524953746f726167653a2055524920717565727920666f722060008201527f6e6f6e6578697374656e7420746f6b656e000000000000000000000000000000602082015250565b7f4552433732313a20617070726f76656420717565727920666f72206e6f6e657860008201527f697374656e7420746f6b656e0000000000000000000000000000000000000000602082015250565b7f4552433732314d657461646174613a2055524920717565727920666f72206e6f60008201527f6e6578697374656e7420746f6b656e0000000000000000000000000000000000602082015250565b7f4552433732313a20617070726f76616c20746f2063757272656e74206f776e6560008201527f7200000000000000000000000000000000000000000000000000000000000000602082015250565b7f7b226e616d65223a202253656e736569222c2022696d616765223a202268747460008201527f70733a2f2f692e706f7374696d672e63632f5431574a6e57506a2f537072697460208201527f652d53686565742e706e67222c20226465736372697074696f6e223a2022412060408201527f77697365206d616e2e2e2e222c2022616e696d6174696f6e5f75726c223a202260608201527f68747470733a2f2f692e706f7374696d672e63632f393076316b596b4e2f736560808201527f6e7365692e706e67227d0000000000000000000000000000000000000000000060a082015250565b7f646174613a6170706c69636174696f6e2f6a736f6e3b6261736536342c000000600082015250565b7f7b226e616d65223a202253776f7264736d616e222c2022696d616765223a202260008201527f68747470733a2f2f692e706f7374696d672e63632f4d54346a6a3072742f726560208201527f6473616d757261692e706e67222c20226465736372697074696f6e223a20225360408201527f706565647920616e6420707265636973652e222c2022616e696d6174696f6e5f60608201527f75726c223a202268747470733a2f2f692e706f7374696d672e63632f4873646860808201527f68514c562f73776f7264736d616e2e706e67227d00000000000000000000000060a082015250565b7f4552433732313a207472616e736665722063616c6c6572206973206e6f74206f60008201527f776e6572206e6f7220617070726f766564000000000000000000000000000000602082015250565b6133e381612937565b81146133ee57600080fd5b50565b6133fa81612949565b811461340557600080fd5b50565b61341181612955565b811461341c57600080fd5b50565b613428816129a1565b811461343357600080fd5b5056fe4142434445464748494a4b4c4d4e4f505152535455565758595a6162636465666768696a6b6c6d6e6f707172737475767778797a303132333435363738392b2fa26469706673582212207436d9382f835502d0dfa850018085713574e21667290c5bccf0e333c005747964736f6c63430008040033",
  "linkReferences": {},
  "deployedLinkReferences": {}
}